{
  "_format": "hh-sol-artifact-1",
  "contractName": "CrowdFunding",
  "sourceName": "contracts/CrowdFunding.sol",
  "abi": [
    {
      "inputs": [
        {
          "internalType": "uint256",
          "name": "",
          "type": "uint256"
        }
      ],
      "name": "campaigns",
      "outputs": [
        {
          "internalType": "address",
          "name": "owner",
          "type": "address"
        },
        {
          "internalType": "string",
          "name": "title",
          "type": "string"
        },
        {
          "internalType": "string",
          "name": "description",
          "type": "string"
        },
        {
          "internalType": "uint256",
          "name": "target",
          "type": "uint256"
        },
        {
          "internalType": "uint256",
          "name": "deadline",
          "type": "uint256"
        },
        {
          "internalType": "uint256",
          "name": "amountCollected",
          "type": "uint256"
        },
        {
          "internalType": "string",
          "name": "image",
          "type": "string"
        }
      ],
      "stateMutability": "view",
      "type": "function"
    },
    {
      "inputs": [
        {
          "internalType": "address",
          "name": "_owner",
          "type": "address"
        },
        {
          "internalType": "string",
          "name": "_title",
          "type": "string"
        },
        {
          "internalType": "string",
          "name": "_description",
          "type": "string"
        },
        {
          "internalType": "uint256",
          "name": "_target",
          "type": "uint256"
        },
        {
          "internalType": "uint256",
          "name": "_deadline",
          "type": "uint256"
        },
        {
          "internalType": "string",
          "name": "_image",
          "type": "string"
        }
      ],
      "name": "createCampaign",
      "outputs": [
        {
          "internalType": "uint256",
          "name": "",
          "type": "uint256"
        }
      ],
      "stateMutability": "nonpayable",
      "type": "function"
    },
    {
      "inputs": [
        {
          "internalType": "uint256",
          "name": "_id",
          "type": "uint256"
        }
      ],
      "name": "donateToCampaign",
      "outputs": [],
      "stateMutability": "payable",
      "type": "function"
    },
    {
      "inputs": [],
      "name": "getCampaigns",
      "outputs": [
        {
          "components": [
            {
              "internalType": "address",
              "name": "owner",
              "type": "address"
            },
            {
              "internalType": "string",
              "name": "title",
              "type": "string"
            },
            {
              "internalType": "string",
              "name": "description",
              "type": "string"
            },
            {
              "internalType": "uint256",
              "name": "target",
              "type": "uint256"
            },
            {
              "internalType": "uint256",
              "name": "deadline",
              "type": "uint256"
            },
            {
              "internalType": "uint256",
              "name": "amountCollected",
              "type": "uint256"
            },
            {
              "internalType": "string",
              "name": "image",
              "type": "string"
            },
            {
              "internalType": "address[]",
              "name": "donators",
              "type": "address[]"
            },
            {
              "internalType": "uint256[]",
              "name": "donations",
              "type": "uint256[]"
            }
          ],
          "internalType": "struct CrowdFunding.Campaign[]",
          "name": "",
          "type": "tuple[]"
        }
      ],
      "stateMutability": "view",
      "type": "function"
    },
    {
      "inputs": [
        {
          "internalType": "uint256",
          "name": "_id",
          "type": "uint256"
        }
      ],
      "name": "getDonators",
      "outputs": [
        {
          "internalType": "address[]",
          "name": "",
          "type": "address[]"
        },
        {
          "internalType": "uint256[]",
          "name": "",
          "type": "uint256[]"
        }
      ],
      "stateMutability": "view",
      "type": "function"
    },
    {
      "inputs": [],
      "name": "numberOfCampaings",
      "outputs": [
        {
          "internalType": "uint256",
          "name": "",
          "type": "uint256"
        }
      ],
      "stateMutability": "view",
      "type": "function"
    }
  ],
  "bytecode": "0x6080604052600060015534801561001557600080fd5b50610f1e806100256000396000f3fe6080604052600436106100555760003560e01c80630fa91fa91461005a578063141961bc1461009157806342a4fda8146100c45780637322134d146100d95780639943e3a1146100fd578063a6b036331461011d575b600080fd5b34801561006657600080fd5b5061007a610075366004610a0c565b61013f565b604051610088929190610a25565b60405180910390f35b34801561009d57600080fd5b506100b16100ac366004610a0c565b61020e565b6040516100889796959493929190610af6565b6100d76100d2366004610a0c565b6103eb565b005b3480156100e557600080fd5b506100ef60015481565b604051908152602001610088565b34801561010957600080fd5b506100ef610118366004610c03565b6104ad565b34801561012957600080fd5b506101326105c6565b6040516100889190610d30565b600081815260208181526040918290206007810180548451818502810185019095528085526060948594929360080192909184918301828280156101ac57602002820191906000526020600020905b81546001600160a01b0316815260019091019060200180831161018e575b50505050509150808054806020026020016040519081016040528092919081815260200182805480156101fe57602002820191906000526020600020905b8154815260200190600101908083116101ea575b5050505050905091509150915091565b600060208190529081526040902080546001820180546001600160a01b03909216929161023a90610e3d565b80601f016020809104026020016040519081016040528092919081815260200182805461026690610e3d565b80156102b35780601f10610288576101008083540402835291602001916102b3565b820191906000526020600020905b81548152906001019060200180831161029657829003601f168201915b5050505050908060020180546102c890610e3d565b80601f01602080910402602001604051908101604052809291908181526020018280546102f490610e3d565b80156103415780601f1061031657610100808354040283529160200191610341565b820191906000526020600020905b81548152906001019060200180831161032457829003601f168201915b50505050509080600301549080600401549080600501549080600601805461036890610e3d565b80601f016020809104026020016040519081016040528092919081815260200182805461039490610e3d565b80156103e15780601f106103b6576101008083540402835291602001916103e1565b820191906000526020600020905b8154815290600101906020018083116103c457829003601f168201915b5050505050905087565b600081815260208181526040808320600781018054600180820183559186528486200180546001600160a01b0319163317905560088201805491820181558552928420349301839055805491519293909290916001600160a01b03169084908381818185875af1925050503d8060008114610482576040519150601f19603f3d011682016040523d82523d6000602084013e610487565b606091505b5050905080156104a7578282600501546104a19190610e88565b60058301555b50505050565b6001546000908152602081905260408120600481015442116105275760405162461bcd60e51b815260206004820152602960248201527f54686520646561646c696e65206d7573742062652061206461746520696e207460448201526868652066757475726560b81b606482015260840160405180910390fd5b80546001600160a01b0319166001600160a01b038916178155865161055590600183019060208a0190610973565b50855161056b9060028301906020890190610973565b5060038101859055600481018490556000600582015582516105969060068301906020860190610973565b50600180549060006105a783610ea0565b9190505550600180546105ba9190610ebb565b98975050505050505050565b6060600060015467ffffffffffffffff8111156105e5576105e5610b60565b60405190808252806020026020018201604052801561066e57816020015b61065b60405180610120016040528060006001600160a01b0316815260200160608152602001606081526020016000815260200160008152602001600081526020016060815260200160608152602001606081525090565b8152602001906001900390816106035790505b50905060005b60015481101561096d57600081815260208181526040918290208251610120810190935280546001600160a01b03168352600181018054919392849290840191906106be90610e3d565b80601f01602080910402602001604051908101604052809291908181526020018280546106ea90610e3d565b80156107375780601f1061070c57610100808354040283529160200191610737565b820191906000526020600020905b81548152906001019060200180831161071a57829003601f168201915b5050505050815260200160028201805461075090610e3d565b80601f016020809104026020016040519081016040528092919081815260200182805461077c90610e3d565b80156107c95780601f1061079e576101008083540402835291602001916107c9565b820191906000526020600020905b8154815290600101906020018083116107ac57829003601f168201915b5050505050815260200160038201548152602001600482015481526020016005820154815260200160068201805461080090610e3d565b80601f016020809104026020016040519081016040528092919081815260200182805461082c90610e3d565b80156108795780601f1061084e57610100808354040283529160200191610879565b820191906000526020600020905b81548152906001019060200180831161085c57829003601f168201915b50505050508152602001600782018054806020026020016040519081016040528092919081815260200182805480156108db57602002820191906000526020600020905b81546001600160a01b031681526001909101906020018083116108bd575b505050505081526020016008820180548060200260200160405190810160405280929190818152602001828054801561093357602002820191906000526020600020905b81548152602001906001019080831161091f575b50505050508152505083838151811061094e5761094e610ed2565b602002602001018190525050808061096590610ea0565b915050610674565b50919050565b82805461097f90610e3d565b90600052602060002090601f0160209004810192826109a157600085556109e7565b82601f106109ba57805160ff19168380011785556109e7565b828001600101855582156109e7579182015b828111156109e75782518255916020019190600101906109cc565b506109f39291506109f7565b5090565b5b808211156109f357600081556001016109f8565b600060208284031215610a1e57600080fd5b5035919050565b604080825283519082018190526000906020906060840190828701845b82811015610a675781516001600160a01b031684529284019290840190600101610a42565b5050508381038285015284518082528583019183019060005b81811015610a9c57835183529284019291840191600101610a80565b5090979650505050505050565b6000815180845260005b81811015610acf57602081850181015186830182015201610ab3565b81811115610ae1576000602083870101525b50601f01601f19169290920160200192915050565b6001600160a01b038816815260e060208201819052600090610b1a90830189610aa9565b8281036040840152610b2c8189610aa9565b90508660608401528560808401528460a084015282810360c0840152610b528185610aa9565b9a9950505050505050505050565b634e487b7160e01b600052604160045260246000fd5b600082601f830112610b8757600080fd5b813567ffffffffffffffff80821115610ba257610ba2610b60565b604051601f8301601f19908116603f01168101908282118183101715610bca57610bca610b60565b81604052838152866020858801011115610be357600080fd5b836020870160208301376000602085830101528094505050505092915050565b60008060008060008060c08789031215610c1c57600080fd5b86356001600160a01b0381168114610c3357600080fd5b9550602087013567ffffffffffffffff80821115610c5057600080fd5b610c5c8a838b01610b76565b96506040890135915080821115610c7257600080fd5b610c7e8a838b01610b76565b9550606089013594506080890135935060a0890135915080821115610ca257600080fd5b50610caf89828a01610b76565b9150509295509295509295565b600081518084526020808501945080840160005b83811015610cf55781516001600160a01b031687529582019590820190600101610cd0565b509495945050505050565b600081518084526020808501945080840160005b83811015610cf557815187529582019590820190600101610d14565b60006020808301818452808551808352604092508286019150828160051b87010184880160005b83811015610e2f57888303603f19018552815180516001600160a01b0316845261012088820151818a870152610d8f82870182610aa9565b9150508782015185820389870152610da78282610aa9565b606084810151908801526080808501519088015260a0808501519088015260c080850151888303828a01529193509150610de18382610aa9565b9250505060e08083015186830382880152610dfc8382610cbc565b925050506101008083015192508582038187015250610e1b8183610d00565b968901969450505090860190600101610d57565b509098975050505050505050565b600181811c90821680610e5157607f821691505b6020821081141561096d57634e487b7160e01b600052602260045260246000fd5b634e487b7160e01b600052601160045260246000fd5b60008219821115610e9b57610e9b610e72565b500190565b6000600019821415610eb457610eb4610e72565b5060010190565b600082821015610ecd57610ecd610e72565b500390565b634e487b7160e01b600052603260045260246000fdfea26469706673582212207fea9ee385de072592c3b6e1aaeb108814159daf3a96cb94730e4f4e1c00457164736f6c63430008090033",
  "linkReferences": {},
  "deployedLinkReferences": {}
}